:100000000C949E000C94C6000C94C6000C94C60080
:100010000C94C6000C94C6000C94C6000C94C60048
:100020000C94C6000C94C6000C94C6000C94C60038
:100030000C94C6000C94C6000C94C6000C94C60028
:100040000C945B060C94C6000C9429060C940306D1
:100050000C94C6000C94C6000C94C6000C94C60008
:100060000C94A5060C94C60007634236B79BD8A72C
:100070001A39685618AEBAAB558C1D3CB7CC5763CD
:10008000BD6DEDFD753EF6177231BF000000803F7B
:1000900008000000BE922449123EABAAAA2ABECD97
:1000A000CCCC4C3E00000080BEABAAAAAA3E000009
:1000B0000000BF000000803F000000000008417801
:1000C000D3BB4387D1133D190E3CC3BD4282AD2B38
:1000D0003E68EC8276BED98FE1A93E4C80EFFFBE30
:1000E00001C4FF7F3F000000000000000008000284
:1000F00001000003040700000000000000000000F1
:100100000000250028002B0000000000240027002C
:100110002A00040404040404040402020202020289
:1001200003030303030301020408102040800102BB
:1001300004081020010204081020C40711241FBE67
:10014000CFEFD8E0DEBFCDBF11E0A0E0B1E0ECE939
:10015000FBE102C005900D92A438B107D9F723E066
:10016000A4E8B1E001C01D92A23FB207E1F710E0A0
:10017000CEE9D0E004C02197FE010E94C60DCD3922
:10018000D107C9F70E9408080C94CC0D0C9400000C
:1001900090E0FC01EA5DFE4F24918E5E9E4FFC01D3
:1001A0008491882399F090E0880F991FFC01E85F03
:1001B000FE4FA591B491FC01E250FF4F85919491BF
:1001C0008FB7F894EC91E22BEC938FBF0895982FA2
:1001D0002091400381E0213208F043C080911C034C
:1001E0008111FCCF80913F0332E030931C03909348
:1001F0001B039FEF90931A03109219032093180387
:10020000AFE1B3E0E8EFF2E090E0291331C01092E3
:10021000F7029091F702880F892B8093F702809163
:10022000F602813049F51092F6028091F702809330
:10023000BB008091BC0083FDF8CF85EC8093BC00AF
:1002400080911C038230E1F380911A038F3FB1F05B
:1002500080911A038032A1F080911A03803391F0CB
:1002600084E010921E031092400310921D03089523
:100270003D9131939F5FC9CF85EEE0CF80E0F1CF14
:1002800082E0EFCF83E0EDCF90911C039111FCCF82
:1002900091E090931C0390931B032FEF20931A037C
:1002A00010921903260F209318039093F702909150
:1002B000F702880F892B8093F7028091F602813034
:1002C000F9F41092F6028091F7028093BB008091BE
:1002D000BC0083FDF8CF85EC8093BC0080911C03AB
:1002E0008130E1F380911903861710F460911903AE
:1002F000A8EFB2E0E6EDF2E080E0861303C00895D7
:1003000085EEEACF9D9191938F5FF7CF0895089581
:10031000AF92BF92CF92DF92EF92FF920F931F9313
:10032000CF93DF936C017B018B01040F151FEB0151
:100330005E01AE18BF08C017D10759F06991D60108
:10034000ED91FC910190F081E02DC6010995892B7A
:1003500079F7C501DF91CF911F910F91FF90EF9039
:10036000DF90CF90BF90AF900895FC01538D448DE6
:10037000252F30E0842F90E0821B930B541710F050
:10038000CF96089501970895FC01918D828D98175D
:1003900061F0A28DAE0FBF2FB11D5D968C91928D35
:1003A0009F5F9F73928F90E008958FEF9FEF089566
:1003B000FC01918D828D981731F0828DE80FF11D2F
:1003C000858D90E008958FEF9FEF0895FC01918D4A
:1003D000228D892F90E0805C9F4F821B91098F7343
:1003E0009927089581E493E00E94E60121E0892B9A
:1003F00009F420E0822F089580E090E0892B29F015
:100400000E94F20181110C9400000895FC01A48D5A
:10041000A80FB92FB11DA35ABF4F2C91848D90E026
:1004200001968F739927848FA689B7892C93A08909
:10043000B1898C91837080648C93938D848D981393
:1004400006C00288F389E02D80818F7D8083089526
:10045000EF92FF920F931F93CF93DF93EC0181E014
:10046000888F9B8D8C8D98131AC0E889F9898081BB
:1004700085FF15C09FB7F894EE89FF896083E889EE
:10048000F98980818370806480839FBF81E090E0E0
:10049000DF91CF911F910F91FF90EF900895F62E6D
:1004A0000B8D10E00F5F1F4F0F731127E02E8C8D07
:1004B0008E110CC00FB607FCFACFE889F98980814C
:1004C00085FFF5CFCE010E940602F1CFEB8DEC0F38
:1004D000FD2FF11DE35AFF4FF0829FB7F8940B8F69
:1004E000EA89FB8980818062CFCFCF93DF93EC01D3
:1004F000888D8823B9F0AA89BB89E889F9898C910C
:1005000085FD03C0808186FD0DC00FB607FCF7CFC7
:100510008C9185FFF2CF808185FFEDCFCE010E94C7
:100520000602E9CFDF91CF91089590E0FC01E651FA
:10053000FF4F2491FC01EA5DFE4F3491FC01EE5E19
:10054000FE4FE491EE23C9F0222339F0233001F16C
:10055000A8F4213019F1223029F1F0E0EE0FFF1F4D
:10056000E250FF4FA591B4918FB7F894EC916111CF
:1005700026C030953E233C938FBF08952730A9F0C5
:100580002830C9F0243049F7809180008F7D03C066
:10059000809180008F7780938000DFCF84B58F7744
:1005A00084BDDBCF84B58F7DFBCF8091B0008F778A
:1005B0008093B000D2CF8091B0008F7DF9CF3E2BD9
:1005C000DACF1F93CF93DF93182FEB010E94C8005F
:1005D000209739F460E0812FDF91CF911F910C9427
:1005E0009502CF3FD10511F461E0F5CFE12FF0E0A6
:1005F000E651FF4FE491E33031F140F4E130B1F0E6
:10060000E230E1F0C038D1057CF7E4CFE73029F1E2
:10061000E83059F1E430B1F7809180008062809336
:100620008000D0938B00C0938A0004C084B580689A
:1006300084BDC7BDDF91CF911F91089584B58062BD
:1006400084BDC8BDF7CF8091800080688093800012
:10065000D0938900C0938800EDCF8091B00080686E
:100660008093B000C093B300E5CF8091B00080626A
:100670008093B000C093B400DDCF3FB7F894809171
:10068000CC019091CD01A091CE01B091CF0126B5C2
:10069000A89B05C02F3F19F00196A11DB11D3FBFBA
:1006A000BA2FA92F982F8827BC01CD01620F711D89
:1006B000811D911D42E0660F771F881F991F4A9583
:1006C000D1F708958F929F92AF92BF92CF92DF920F
:1006D000EF92FF924B015C010E943D036B017C0194
:1006E0000E943D036C197D098E099F09683E734085
:1006F00081059105A8F321E0821A9108A108B108AB
:1007000088EEC80E83E0D81EE11CF11C8114910410
:10071000A104B10429F7FF90EF90DF90CF90BF9034
:10072000AF909F908F900895DC01ED91FC91019026
:10073000F081E02D09941F93CF93DF93142FCAEE1D
:10074000D3E0288139819A8141E040931D03909341
:100750003F0310921E03109240038068682F70E0E0
:10076000C9010E94940388819981DC01ED91FC917B
:100770000190F081E02D612F099581E0DF91CF910B
:100780001F910C94E70085ED8093BC008091BC0024
:1007900084FDFCCF10921C0308952091A401260F24
:1007A0003327331F21323105ECF420911C03FC0167
:1007B00090E080E0243069F082E00895A091A401E7
:1007C0002191AC014C575E4FA40FB52FB11D2C9356
:1007D0000196861798F38091A401680F6093A40195
:1007E00080E0089581E008950895E091D502809118
:1007F000D402E81730F4F0E0EA52FD4F808190E037
:1008000008958FEF9FEF08959091D5028091D402C3
:100810002FEF3FEF981748F4E92FF0E0EA52FD4F31
:10082000208130E09F5F9093D502C90108958091A7
:10083000D4029091D502891B990B0895CF92DF9233
:10084000EF92FF920F931F93CF93DF937C01CB0125
:100850008A0120911D03222389F0EB016B01C40E54
:10086000D51ECC15DD0569F06991D701ED91FC919C
:100870000190F081E02DC7010995F3CF642F0E940C
:10088000CD03C801DF91CF911F910F91FF90EF90A1
:10089000DF90CF900895CF93DF931F92CDB7DEB74F
:1008A000698320911D032223F9F020914003203217
:1008B00058F021E030E0FC013383228390E080E0B7
:1008C0000F90DF91CF91089580911E03E82FF0E003
:1008D000E15EFC4F998190838F5F80931E0380932C
:1008E000400381E090E0ECCF61E0CE0101960E94F0
:1008F000CD03F7CF90E080E00895FC010190002047
:10090000E9F73197AF01481B590BBC0181E493E033
:100910000C9488018F929F92AF92BF920F931F9376
:10092000CF93DF93CDB7DEB7A1970FB6F894DEBFB4
:100930000FBECDBF19A2423008F44AE08E010F5D10
:100940001F4F842E912CB12CA12CA50194010E9443
:10095000A40DE62FB901CA01EA30F4F4E05DD80134
:10096000EE938D01232B242B252B79F790E080E04B
:10097000109719F0CD010E947D04A1960FB6F8944E
:10098000DEBF0FBECDBFDF91CF911F910F91BF9002
:10099000AF909F908F900895E95CE1CFCF93DF9364
:1009A0000E947D04EC0184E291E00E947D048C0FA2
:1009B0009D1FDF91CF9108950F931F93CF93DF93E6
:1009C000CAEED3E0288139819A8141E040931D032A
:1009D00090933F0310921E03109240038068682F8B
:1009E00070E0C9010E94940381E00E94E70062E088
:1009F0008A810E9444011092D5028093D40288819A
:100A00009981DC01ED91FC910284F385E02D09953B
:100A10008C0188819981DC01ED91FC910284F38540
:100A2000E02D099520E0382FC801822B932BDF9110
:100A3000CF911F910F910895CF93DF93CAEED3E02A
:100A4000288139819A8141E040931D0390933F03AF
:100A500010921E03109240038068682F70E0C90155
:100A60000E94940381E00E94E70061E08A810E9475
:100A700044011092D5028093D40288819981DC01CF
:100A8000ED91FC910284F385E02D0995DF91CF91E2
:100A90000895CF93DF931092D5021092D402109252
:100AA0001E031092400310921C0381E080931B03ED
:100AB0001092F60261E082E10E94950261E083E11A
:100AC0000E9495028091B9008E7F8093B900809139
:100AD000B9008D7F8093B90088E48093B80085E4E5
:100AE0008093BC0086E891E09093D3028093D20279
:100AF00087E891E09093D1028093D00282E10E9436
:100B00001C05843419F0803109F079C081E08093AC
:100B1000ED03C091F003D091F103AE0170E060E00D
:100B20000E949B03D093F103C093F003C091EE03A6
:100B3000D091EF038091ED0381110BC089E2809386
:100B4000EC038EED93E09093EB038093EA030E9415
:100B50004905AE0170E060E08FE00E949B03D093F6
:100B6000EF03C093EE0341E050E060E070E080E00E
:100B70000E949B0363E070E080E090E00E946203CB
:100B800043E050E060E070E080E00E949B038091D1
:100B9000F0039091F103853D910511F138F4009730
:100BA00049F1803C910509F181E02AC0863F910519
:100BB00091F08F3F910541F08B3E9105A9F762E3DB
:100BC00070E080E090E004C063E070E080E090E0DE
:100BD0000E946203E9CF68E170E080E090E0F8CF26
:100BE00065E670E080E090E0F3CF6AE970E080E0D5
:100BF00090E0EECF6CEB72E080E090E0E9CF80E037
:100C0000DF91CF9108951F920F920FB60F9211248A
:100C10002F933F934F935F936F937F938F939F9304
:100C2000AF93BF93EF93FF9381E493E00E9406029A
:100C3000FF91EF91BF91AF919F918F917F916F91B4
:100C40005F914F913F912F910F900FBE0F901F908A
:100C500018951F920F920FB60F9211242F938F9316
:100C60009F93EF93FF93E0915103F09152038081A2
:100C7000E0915703F091580382FD1BC09081809151
:100C80005A038F5F8F7320915B03821741F0E091CD
:100C90005A03F0E0EF5BFC4F958F80935A03FF916E
:100CA000EF919F918F912F910F900FBE0F901F90FA
:100CB00018958081F4CF1F920F920FB60F921124D6
:100CC0002F933F938F939F93AF93BF938091C801CE
:100CD0009091C901A091CA01B091CB013091C70197
:100CE00023E0230F2D3758F50196A11DB11D209348
:100CF000C7018093C8019093C901A093CA01B09322
:100D0000CB018091CC019091CD01A091CE01B09109
:100D1000CF010196A11DB11D8093CC019093CD010F
:100D2000A093CE01B093CF01BF91AF919F918F91CE
:100D30003F912F910F900FBE0F901F90189526E8AE
:100D4000230F0296A11DB11DD2CF1F920F920FB695
:100D50000F9211242F933F934F935F936F937F9341
:100D60008F939F93AF93BF93EF93FF938091B900BD
:100D7000887F803609F44AC0F0F5883209F4A7C0AC
:100D800018F5803109F49BC0B8F4882309F4F9C040
:100D9000883009F494C0FF91EF91BF91AF919F917A
:100DA0008F917F916F915F914F913F912F910F9014
:100DB0000FBE0F901F901895883109F488C08032BB
:100DC00051F780931A0314C0803409F49DC040F495
:100DD0008033B9F38833F9F680931A0385ECB0C0F9
:100DE000803509F485C0883509F496C0883499F6B1
:100DF0000E94C303D0CF883909F48CC038F58837F6
:100E000029F050F4883611F0803729F683E080937A
:100E10001C031092C60157C0883809F47BC0803982
:100E200019F0803809F0B7CF8091C601803208F000
:100E300071C0E091C60181E08E0F8093C601809160
:100E4000BB00F0E0EA55FE4F80833DC0803B39F0A7
:100E5000E0F4803A09F479C0883A09F09CCF84E044
:100E600080931C031092A5011092A401E091D2027C
:100E7000F091D30209958091A40181110FC081E006
:100E80008093A4011092840109C0803C09F4A6CF8C
:100E9000883C09F4A3CF883B09F07DCFE091A50100
:100EA00081E08E0F8093A501F0E0EC57FE4F80812A
:100EB0008093BB009091A5018091A40129C08091ED
:100EC000F7028093BB0085EC8093BC0064CF9091C7
:100ED000190380911803981758F5E091190381E0E0
:100EE0008E0F80931903F0E0E850FD4F8081E9CF29
:100EF000E091190381E08E0F809319038091BB006C
:100F0000F0E0E850FD4F8083909119038091180321
:100F10009817C8F285E8D8CFE091190381E08E0FC9
:100F2000809319038091BB00F0E0E850FD4F80836F
:100F300080911B0381115CCF81E08093F60284EAEB
:100F40008093BC0010921C0326CF85EC8093BC00DC
:100F500010921C038091C601803230F4E091C601EA
:100F6000F0E0EA55FE4F10826091C60170E0E0911A
:100F7000D002F091D10286EA91E009951092C60163
:100F80000ACF10921A0334CFE1E4F3E01382128205
:100F900088EE93E0A0E0B0E084839583A683B783D6
:100FA00024E031E03183208325EC30E0358724874D
:100FB00024EC30E03787268720EC30E0318B208B23
:100FC00021EC30E0338B228B22EC30E0358B248B0C
:100FD00026EC30E0378B268B118E128E138E148EFA
:100FE000EEEDF3E01382128284839583A683B783A8
:100FF00086E191E091838083EAEEF3E013828BEE49
:1010000090E09783868381E090E0958384830895C0
:10101000CF93DF9300D000D0CDB7DEB7789484B5FE
:10102000826084BD84B5816084BD85B5826085BDE4
:1010300085B5816085BD80916E00816080936E0072
:101040001092810080918100826080938100809164
:101050008100816080938100809180008160809315
:1010600080008091B10084608093B1008091B000D5
:1010700081608093B00080917A00846080937A00D0
:1010800080917A00826080937A0080917A008160FA
:1010900080937A0080917A00806880937A00109221
:1010A000C100E0915103F091520382E08083E0910E
:1010B0004D03F0914E031082E0914F03F0915003E5
:1010C0008FEC808310925903E0915503F091560301
:1010D00086E08083E0915303F09154038081806126
:1010E0008083E0915303F091540380818860808372
:1010F000E0915303F0915403808180688083E091F4
:101100005303F091540380818F7D808387E291E0C7
:101110000E94CE0489E28093EC038EED93E09093DD
:10112000EB038093EA030E944905882309F448C130
:1011300087E391E00E94CE048BE00E94C8008AE021
:101140000E94C80089E00E94C80000ED11E01A82E8
:10115000198229813A81B901330F880B990B0E94BA
:10116000B90A20E030E04FE753E40E940F0A20E084
:1011700030E040E250E40E94B20B20E030E04FE764
:1011800053E40E94450B0E94880AD8016D938D019B
:10119000E981FA813196FA83E983E115F140C9F6D4
:1011A00080E0282E80E0382E0EED13E080E00E94D3
:1011B0001C058F7E482F50E070E060E080E00E94C8
:1011C0009B036CE370E080E090E00E9462038091FA
:1011D000ED03811109C039E23093EC031093EB0366
:1011E0000093EA030E94490584E10E94DC044C015B
:1011F00086E10E94DC042C0188E10E94DC046C0181
:101200008AE10E94DC049A8389838091F0039091A3
:10121000F103853D910509F4F3C008F0D6C00097AD
:1012200009F4F8C0803C910509F4EFC080E00E9409
:101230001C058061482F50E070E060E080E00E9473
:101240009B0381E791E00E947D04B12CA12C4AE030
:10125000C501B4010E948A0485E791E00E947D04E3
:10126000712C612C4AE0C301B2010E948A048AE712
:1012700091E00E947D04F12CE12C4AE0C701B60107
:101280000E948A048FE791E00E947D04A981BA81BF
:10129000CD01B0E0A0E089839A83AB83BC834AE0B0
:1012A000BC01CD010E948A04C301B2010E94B70AA9
:1012B0002B013C01C501B4010E94B70A4B015C013E
:1012C000AC019B01C301B2010E940F0A2B013C013A
:1012D000C701B6010E94B70AA50194010E940F0A36
:1012E0006B017C0169817A818B819C810E94B70AA4
:1012F000A50194010E940F0A4B015C0182E891E074
:101300000E947D0420E030E040E853E4C301B201D4
:101310000E94450B0E94810A2B01072E000C880BAE
:10132000990B40E10E948A0420E030E040E853E459
:10133000C701B6010E94450B0E94810A6B01072E6E
:10134000000C880B990B40E10E948A0420E030E0F9
:1013500040E853E4C501B4010E94450B0E94810A94
:101360004B01072E000C880B990B40E10E948A0468
:1013700084E291E00E947D04F201E053FE4F60811F
:1013800070E08BE00E94E102F601E053FE4F6081C5
:1013900070E08AE00E94E102F401E053FE4F6081B8
:1013A00070E089E00E94E1022114310409F4FECECC
:1013B0000E94F201882309F4F9CE0E940000F6CEC3
:1013C00084E491E00E94CE04FFCF863F910599F01E
:1013D0008F3F910549F08B3E910509F027CF62E3DD
:1013E00070E080E090E004C063E070E080E090E0B6
:1013F0000E9462031BCF68E170E080E090E0F8CFCC
:1014000065E670E080E090E0F3CF6AE970E080E0AC
:1014100090E0EECF6CEB72E080E090E0E9CF0E94CC
:10142000230A0C940B0B0E94040B58F00E94FD0A37
:1014300040F029F45F3F29F00C94F40A51110C9408
:101440003F0B0C94FA0A0E941C0B68F39923B1F32A
:10145000552391F3951B550BBB27AA2762177307DA
:10146000840738F09F5F5F4F220F331F441FAA1F6E
:10147000A9F335D00E2E3AF0E0E832D0915050402A
:10148000E695001CCAF72BD0FE2F29D0660F771FD8
:10149000881FBB1F261737074807AB07B0E809F0BE
:1014A000BB0B802DBF01FF2793585F4F3AF09E3F43
:1014B000510578F00C94F40A0C943F0B5F3FE4F371
:1014C000983ED4F3869577956795B795F7959F5F86
:1014D000C9F7880F911D9695879597F90895E1E0D2
:1014E000660F771F881FBB1F621773078407BA0731
:1014F00020F0621B730B840BBA0BEE1F88F7E0958C
:1015000008950E94880A6894B1110C943F0B0895C5
:101510000E94240B88F09F5798F0B92F9927B75154
:10152000B0F0E1F0660F771F881F991F1AF0BA9587
:10153000C9F714C0B13091F00E943E0BB1E008959C
:101540000C943E0B672F782F8827B85F39F0B93F8E
:10155000CCF3869577956795B395D9F73EF490953A
:101560008095709561957F4F8F4F9F4F0895E894B8
:1015700009C097FB3EF490958095709561957F4FDB
:101580008F4F9F4F9923A9F0F92F96E9BB27939589
:10159000F695879577956795B795F111F8CFFAF499
:1015A000BB0F11F460FF1BC06F5F7F4F8F4F9F4FCA
:1015B00016C0882311F096E911C0772321F09EE828
:1015C000872F762F05C0662371F096E8862F70E08E
:1015D00060E02AF09A95660F771F881FDAF7880F68
:1015E0009695879597F9089597F99F6780E870E039
:1015F00060E008959FEF80EC089500240A94161689
:10160000170618060906089500240A9412161306F0
:10161000140605060895092E0394000C11F488237E
:1016200052F0BB0F40F4BF2B11F460FF04C06F5F9A
:101630007F4F8F4F9F4F089557FD9058440F551F70
:1016400059F05F3F71F04795880F97FB991F61F044
:101650009F3F79F087950895121613061406551FBB
:10166000F2CF4695F1DF08C0161617061806991F27
:10167000F1CF86957105610508940895E894BB271C
:1016800066277727CB0197F908950E94580B0C9491
:101690000B0B0E94FD0A38F00E94040B20F09523EA
:1016A00011F00C94F40A0C94FA0A11240C943F0BD8
:1016B0000E941C0B70F3959FC1F3950F50E0551FCE
:1016C000629FF001729FBB27F00DB11D639FAA2797
:1016D000F00DB11DAA1F649F6627B00DA11D661FE6
:1016E000829F2227B00DA11D621F739FB00DA11D07
:1016F000621F839FA00D611D221F749F3327A00DC1
:10170000611D231F849F600D211D822F762F6A2F5C
:1017100011249F5750409AF0F1F088234AF0EE0FC1
:10172000FF1FBB1F661F771F881F91505040A9F7EE
:101730009E3F510580F00C94F40A0C943F0B5F3FE0
:10174000E4F3983ED4F3869577956795B795F7952A
:10175000E7959F5FC1F7FE2B880F911D96958795A2
:1017600097F90895FA01EE0FFF1F30962105310514
:10177000A1F16115710561F48038BFE39B0749F160
:1017800068949038810561F08038BFEF9B0741F085
:1017900099234AF5FF3FE1053105210519F1E89448
:1017A0000894E795D901AA2329F4AB2FBE2FF85F3F
:1017B000D0F310C0FF5F70F4A695E0F7F73950F052
:1017C00019F0FF3A38F49F779F930DD00F9007FCE4
:1017D0009058089546F00C94FA0A60E070E080E8B2
:1017E0009FE308954FE79F775F934F933F932F9326
:1017F0000E94AD0C2F913F914F915F910E94450B3C
:101800000C940A0C29F416F00C94F40A0C943E0B78
:101810000C94FA0A0E94240BA8F39638A0F707F854
:101820000F92E8942BE33AEA48EB5FE70E945B0BE8
:101830000F920F920F924DB75EB70F920E94F50C68
:10184000E8E6F0E00E943C0C4F915F91EF91FF9130
:10185000E595EE1FFF1F49F0FE57E0684427EE0FA5
:10186000441FFA95E1F74195550B0E946F0C0F90BC
:1018700007FE0C94630C0895DF93CF931F930F938F
:10188000FF92EF92DF927B018C01689406C0DA2E02
:10189000EF010E94580BFE01E894A5912591359126
:1018A00045915591A6F3EF010E94410DFE0197016C
:1018B000A801DA9469F7DF90EF90FF900F911F91E4
:1018C000CF91DF9108959B01AC0160E070E080E86A
:1018D0009FE30C940F0A0C94F40A0C94960D0E944A
:1018E000240BD8F39923C9F3940F511DA3F39150FE
:1018F000504094F059F0882332F0660F771F881F0C
:1019000091505040C1F79E3F51052CF7880F911D13
:101910009695879597F908955F3FACF0983E9CF0B7
:10192000BB27869577956795B79508F4B160939531
:10193000C1F7BB0F58F711F460FFE8CF6F5F7F4F1F
:101940008F4F9F4FE3CF0C943F0B16F00C94960DE6
:101950000C94FA0A68940C94F40A0E94240BA8F3DD
:101960009923C1F3AEF3DF93CF931F930F93FF92AD
:10197000C92FDD2788232AF02197660F771F881F3C
:10198000DAF720E030E040E85FEB9FE3883920F0B1
:10199000803E38F021968F770E942A0DE0E9F0E032
:1019A00004C00E942A0DEDEBF0E00E943C0C8B017C
:1019B000BE01EC01FB2E6F5771097595771F880BDF
:1019C000990B0E94B90A28E132E741E35FE30E94E4
:1019D000580BAF2D9801AE01FF900F911F91CF9141
:1019E000DF910E94410D0C940B0BFA01DC01AA0F50
:1019F000BB1F9B01AC01BF5728F422273327442784
:101A0000507820C0B75190F4AB2F002446953795FD
:101A10002795011CA395D2F3002071F0220F331FEC
:101A2000441FB395DAF30ED00C94290D6130710583
:101A3000A0E88A07B94630F49B01AC0166277727F6
:101A400088279078309621F0208331834283538316
:101A500008955058BB27AA270E94410D0C940B0BE8
:101A60000E94FD0A38F00E94040B20F039F49F3FD9
:101A700019F426F40C94FA0A0EF4E095E7FB0C94A2
:101A8000F40AE92F0E941C0B58F3BA176207730778
:101A90008407950720F079F4A6F50C943E0B0EF41C
:101AA000E0950B2EBA2FA02D0B01B90190010C016E
:101AB000CA01A0011124FF27591B99F0593F50F486
:101AC000503E68F11A16F040A22F232F342F4427DE
:101AD000585FF3CF469537952795A795F0405395D6
:101AE000C9F77EF41F16BA0B620B730B840BBAF0A6
:101AF0009150A1F0FF0FBB1F661F771F881FC2F711
:101B00000EC0BA0F621F731F841F48F48795779524
:101B10006795B795F7959E3F08F0B0CF9395880FDE
:101B200008F09927EE0F9795879508959F3F31F01C
:101B3000915020F4879577956795B795880F911DFB
:101B40009695879597F90895A1E21A2EAA1BBB1BBB
:101B5000FD010DC0AA1FBB1FEE1FFF1FA217B30779
:101B6000E407F50720F0A21BB30BE40BF50B661F8F
:101B7000771F881F991F1A9469F760957095809553
:101B800090959B01AC01BD01CF010895EE0FFF1FA1
:0C1B90000590F491E02D0994F894FFCF2B
:101B9C000000000028028801B5017502E601C401AD
:101BAC00D801000000004B041E047A04F40317044F
:101BBC000404F5030D0A00436F6C6F7220566965BF
:101BCC0077205465737400466F756E642073656E70
:101BDC00736F72004E6F20544353333437323520B9
:101BEC00666F756E64202E2E2E20636865636B20E5
:101BFC00796F757220636F6E6E656374696F6E7347
:101C0C0000433A090009523A090009473A09000908
:041C1C00423A09003F
:107E0000112484B714BE81FFF0D085E080938100F7
:107E100082E08093C00088E18093C10086E0809377
:107E2000C20080E18093C4008EE0C9D0259A86E02C
:107E300020E33CEF91E0309385002093840096BBD3
:107E4000B09BFECF1D9AA8958150A9F7CC24DD24C4
:107E500088248394B5E0AB2EA1E19A2EF3E0BF2EE7
:107E6000A2D0813461F49FD0082FAFD0023811F036
:107E7000013811F484E001C083E08DD089C08234E0
:107E800011F484E103C0853419F485E0A6D080C0E4
:107E9000853579F488D0E82EFF2485D0082F10E0AE
:107EA000102F00270E291F29000F111F8ED06801E7
:107EB0006FC0863521F484E090D080E0DECF843638
:107EC00009F040C070D06FD0082F6DD080E0C81688
:107ED00080E7D80618F4F601B7BEE895C0E0D1E017
:107EE00062D089930C17E1F7F0E0CF16F0E7DF06D8
:107EF00018F0F601B7BEE89568D007B600FCFDCFD4
:107F0000A601A0E0B1E02C9130E011968C91119780
:107F100090E0982F8827822B932B1296FA010C0160
:107F200087BEE89511244E5F5F4FF1E0A038BF0790
:107F300051F7F601A7BEE89507B600FCFDCF97BE46
:107F4000E89526C08437B1F42ED02DD0F82E2BD052
:107F50003CD0F601EF2C8F010F5F1F4F84911BD097
:107F6000EA94F801C1F70894C11CD11CFA94CF0C13
:107F7000D11C0EC0853739F428D08EE10CD085E9AC
:107F80000AD08FE07ACF813511F488E018D01DD067
:107F900080E101D065CF982F8091C00085FFFCCF94
:107FA0009093C60008958091C00087FFFCCF809118
:107FB000C00084FD01C0A8958091C6000895E0E648
:107FC000F0E098E1908380830895EDDF803219F02E
:107FD00088E0F5DFFFCF84E1DECF1F93182FE3DFCA
:107FE0001150E9F7F2DF1F91089580E0E8DFEE27F6
:047FF000FF270994CA
:027FFE00040479
:0400000300007E007B
:00000001FF
